S0150000545A2D47657453746172742D532E7372656386
S21400000020060020D90200006F03000075030000E0
S21400001000000000000000000000000000000000DB
S2140000200000000000000000000000006F03000059
S21400003000000000000000006F0300006F030000D7
S2140000406F0300006F0300006F0300006F030000E3
S2140000506F0300006F0300006F0300006F030000D3
S2140000606F0300006F0300006F0300006F030000C3
S2140000706F0300006F0300006F0300006F030000B3
S2140000806F0300006F0300006F0300006F030000A3
S2140000906F0300006F0300006F0300006F03000093
S2140000A06F0300006F0300006F0300006F03000083
S2140000B06F0300006F0300006F0300006F03000073
S2140000C06F0300006F0300006F0300006F03000063
S2140000D06F0300006F0300006F0300006F03000053
S2140000E06F0300006F0300006F0300006F03000043
S2140000F06F03000080B582B000AF78607B681800A0
S21400010040F2CD73C0F20003984703001800BD46C6
S21400011002B0010002000300844680BC02BC864692
S21400012081F300880C4780B582B000AF78607B68AA
S214000130180040F2E173C0F200039847030018006D
S214000140BD4602B0010002000300844680BC02BC2B
S214000150864681F300880C4780B582B000AF786091
S2140001607B68180040F63303C0F200039847BD468C
S21400017002B00020010002000300844680BC01BCDF
S214000180864680F30088044780B582B000AF78606A
S2140001907B68180040F65703C0F200039847BD4638
S2140001A002B00020010002000300844680BC01BCAF
S2140001B0864680F30088044780B500AF00BEFEE7A1
S2140001C080B586B000AF78607B687B617B6943E86A
S2140001D080F3FB60FB683B611223FB181B78102240
S2140001E01340DBB253B17B68012293431A0040F2FE
S2140001F00003C2F200031A60002300E00123180087
S214000200BD4606B0010002000300844680BC02BC66
S214000210864681F300880C4710B540F20404C2F20B
S2140002200004237863B940F20003C0F200032BB148
S21400023044F22000C0F2800000E000BF01232370DB
S21400024010BDC04640F20003C0F2000310B54BB12B
S21400025040F2080144F22000C2F20001C0F2800021
S21400026000E000BF44F22000C0F28000036803B93B
S21400027010BD40F20003C0F20003002BF8D09847F0
S214000280F6E7C04680B500AF43F20023C4F2000391
S2140002900022DA664EF20013CEF2000340F280220D
S2140002A0002199504EF20013CEF2000340F2842251
S2140002B000219950C046BD4680BD80B500AF40F2D3
S2140002C08F33C0F20003984740F28523C0F2000344
S2140002D09847C046BD4680BD80B582B000AF40F6A8
S2140002E04813C0F200037B6040F20003C2F2000332
S2140002F03B607A683B689A420FD007E03B681A1D5D
S2140003003A607A68111D796012681A603A6840F29D
S2140003100403C2F200039A42F0D340F20403C2F28E
S21400032000033B6004E03B681A1D3A6000221A6036
S2140003303A6840F22003C2F200039A42F3D340F236
S2140003400003C0F200037B604EF60053CEF20003BB
S2140003507A687F218A439A6040F6C503C0F200039C
S214000360984740F2F573C0F200039847FEE780B561
S21400037000AFFEE780B500AFFEE780B500AF40F205
S214000380C733C0F200039847C046BD4680BD80B55F
S21400039000AF40F27B33C0F200039847C046BD462C
S2140003A080BD80B582B000AF786039607B685A68DF
S2140003B03B685B001E210B401A437B685A60C046B0
S2140003C0BD4602B080BD80B500AF45F20003C4F262
S2140003D000130021180040F2A333C0F20003984730
S2140003E0002040F24B73C0F20003984740F255538A
S2140003F0C0F20003984740F21563C0F20003984726
S21400040040F2D543C0F20003984740F26963C0F259
S214000410000398471F2040F28143C0F2000398472C
S214000420C046BD4680BD80B582B000AF78603960FA
S214000430C0467B685B683A681340002BF9D1C0461B
S214000440BD4602B080BD80B584B000AFF8607A606B
S2140004500B23FB180A1C1A700B23FB181A78FB6870
S214000460083292007968D150FB687D21180040F26E
S2140004702743C0F200039847C046BD4604B080BD7F
S21400048080B582B000AF78607B680122134073B1FC
S21400049040F20512C0F2010241F60043C4F2000326
S2140004A00021180040F24743C0F200039847C046B8
S2140004B0BD4602B080BD80B582B000AF78600A004D
S2140004C0FB1C1A707B68FA1C12781A71C046BD466F
S2140004D002B080BD80B582B000AF40F60003C4F223
S2140004E000037B607B680121180040F2B743C0F22E
S2140004F000039847C046BD4602B080BD80B582B0B6
S21400050000AF78600A00FB1C1A707B68FA1C127831
S2140005101A74C046BD4602B080BD80B584B000AF38
S21400052078607B68DB69FB60FB681B0A1F22134050
S214000530FB60FB681800BD4604B080BD80B582B085
S21400054000AF786039607B683A68DA61C046BD46BD
S21400055002B080BD80B582B000AF41F20043C4F265
S21400056000037B60BB1C00221A807B68180040F2E8
S2140005701B53C0F2000398470200BB1C1A80BB1C2A
S2140005801B881B021A0041F600731A407B68110094
S214000590180040F23D53C0F2000398477B680021E4
S2140005A0180040F2FD43C0F200039847C046BD461F
S2140005B002B080BD80B582B000AF78607B681B69F2
S2140005C01B09012213405A1E9341DBB21800BD4698
S2140005D002B080BD80B582B000AF78607B681B7EBD
S2140005E0DBB2802252421343DAB27B681A76C046E8
S2140005F0BD4602B080BD80B582B000AF78600A000C
S214000600FB1C1A707B68FA1C12781A76C046BD4628
S21400061002B080BD80B582B000AF41F20003C4F2E4
S21400062000037B607B680221180040F2F753C0F29B
S21400063000039847C0467B68180040F2B553C0F2E6
S2140006400003984703001A0001235340DBB2002B37
S214000650F1D17B68180040F2D553C0F200039847EA
S214000660C046BD4602B080BD80B582B000AF41F244
S2140006700003C4F200037B60BB1C00221A80C04645
S214000680BD4602B080BD80B582B000AF78607B68A2
S2140006909B79DBB21800BD4602B080BD80B582B043
S2140006A000AF78600A00FB1C1A707B68FA1C127890
S2140006B09A71C046BD4602B080BD80B584B000AF1A
S2140006C078600A00FB1C1A700F23FB187A68927871
S2140006D01A700F23FB18FA1C1B7812781340DAB234
S2140006E00F23FB1803210A401A700F23FB181B78F0
S2140006F01800BD4604B080BD80B584B000AF7860F9
S2140007000A00FB1C1A700F23FB187A6892781A707E
S2140007100F23FB180F22BA18127803218A431A7087
S214000720FB1C1B7803221340D9B20F23FB180F22A1
S214000730BA1812780A431A707B680F22BA18127811
S2140007409A70C046BD4604B080BD80B582B000AF8A
S2140007500200FB1D1A7040F20043C4F2000303219E
S214000760180040F2BB63C0F20003984703001A006B
S214000770FB1D1B78934225D040F20043C4F20003D1
S214000780FF21180040F29D63C0F200039847FB1D4E
S2140007901A7840F20043C4F200031100180040F239
S2140007A0F963C0F200039847C04640F20043C4F223
S2140007B00003180040F28763C0F200039847030066
S2140007C0002BF2D0C046BD4602B080BD80B582B0D8
S2140007D000AF78607B6803331800BD4602B080BD6A
S2140007E080B582B000AF78607B68023B1800BD46DB
S2140007F002B080BD90B583B000AF40F2BB23C0F21C
S2140008000003984748F200031B683B603B6883F38D
S214000810888848F204031B687B607B681C006408B9
S2140008206400200021002200230000F032F8C046B9
S214000830FDE780B584B000AF786079680C23FB18BC
S2140008402022180040F61513C0F200039847C04651
S214000850BD4604B080BD90B585B000AF786040F26C
S2140008600003C2F200031B681A0001239A43130018
S214000870FB60FB681C006408640020002100220066
S214000880230000F006F80300BB60C046BD4605B076
S21400089090BDE0B545464E465746E0B45D4620B4AA
S2140008A0254626462746A046A146A246A346A44677
S2140008B084F30088A44720BCAB46E0BCBA46B146E9
S2140008C0A846E0BD70B500250E4B0F4CE41AA410E8
S2140008D0A54209D1002500F027F80C4C0C4BE41A71
S2140008E0A410A54207D170BD064AAB009B181B6832
S2140008F098470135ECE7064AAB009B181B689847FB
S2140009000135EEE73409000034090000380900001C
S21400091034090000002310B59A4200D110BDCC5C0B
S214000920C4540133F8E70000F8B5C046F8BC08BC6C
S2140009309E46704745020000F8B5C046F8BC08BCA5
S20C0009409E46704719020000F4
S208000948B9010000EC
S214007C007FE97FE9F8F776BA7FE97FE9F8F78BBA7C
S214007C107FE97FE9F8F7D4BA7FE97FE9F8F7B4BAE5
S214007C207FE97FE9F8F798BA00000000000000003E
S214007C30000000000000000000000000000000003F
S2148040003F438FB0BB1800008020084001000000AE
S214804010000000000000000000000000000000001B
S804000000FB
