S0150000545A2D47657453746172742D532E7372656386
S21400000020060020F5010000F1010000F3010000C9
S21400001000000000000000000000000000000000DB
S214000020000000000000000000000000F1010000D9
S2140000300000000000000000F1010000F1010000D7
S214000040F1010000F1010000F1010000F1010000E3
S214000050F1010000F1010000F1010000F1010000D3
S214000060F1010000F1010000F1010000F1010000C3
S214000070F1010000F1010000F1010000F1010000B3
S214000080F1010000F1010000F1010000F1010000A3
S214000090F1010000F1010000F1010000F101000093
S2140000A0F1010000F1010000F1010000F101000083
S2140000B0F1010000F1010000F1010000F101000073
S2140000C0F1010000F1010000F1010000F101000063
S2140000D0F1010000F1010000F1010000F101000053
S2140000E0F1010000F1010000F1010000F101000043
S2140000F0F101000010B540F29533C0F200039847B6
S214000100010002000300844610BC02BC864681F350
S21400011000880C4710B540F29933C0F200039847A8
S214000120010002000300844610BC02BC864681F330
S21400013000880C4710B540F2CD33C0F20003984754
S2140001400020010002000300844610BC01BC864665
S21400015080F300880447000010B540F20004C2F2A5
S2140001600004237863B940F20003C0F200032BB109
S21400017044F22000C0F2800000E000BF012323709C
S21400018010BDC04640F20003C0F2000310B54BB1EC
S21400019040F2040144F22000C2F20001C0F28000E6
S2140001A000E000BF44F22000C0F28000036803B9FC
S2140001B010BD40F20003C0F20003002BF8D09847B1
S2140001C0F6E7C04610B540F27923C0F20003984720
S2140001D043F20023C4F200030022DA664EF2001354
S2140001E0CEF2000340F280215A5004315A5010BD1E
S2140001F0FEE7FEE710B540F27042C0F2000240F2A1
S2140002000003C2F200039A4212D040F20003C2F288
S214000210000340F27042C0F2000203E01168196069
S2140002200433043240F20001C2F200018B42F5D3DF
S21400023040F20003C2F2000302E000221A60043318
S21400024040F21C02C2F200029342F6D340F20003D0
S214000250C0F200037F2293434EF60052CEF2000215
S214000260936040F20143C0F20003984740F29D338A
S214000270C0F200039847FEE710B540F28723C0F2AD
S2140002800003984710BD10B545F20003C4F20013F2
S2140002905A685A60002040F25B33C0F20003984769
S2140002A040F20D33C0F20003984740F22933C0F203
S2140002B00003984740F2FF23C0F20003984740F23D
S2140002C05933C0F2000398471F2040F2D723C0F2EC
S2140002D00003984710BDC30710D541F60043C4F28B
S2140002E0000340F20512C0F201021A6241F6004312
S2140002F0C4F200035B687D221A42F7D1704740F6CD
S2140003000003C4F2000301221A71704741F2004351
S214000310C4F20003DA69120A120241F600710A40BA
S214000320DA6100221A74704741F20003C4F2000337
S21400033002221A7641F20003C4F200031B69DB06B0
S214000340F8D541F20002C4F20002137E8021494231
S2140003500B43DBB213767047704740F20043C4F29B
S21400036000039B7803221340984212D040F20043C9
S214000370C4F20003FC329A719A7803218A4308403B
S2140003801043987040F20043C4F200039B79002BA0
S214000390F8D07047033070470238704710B540F207
S2140003A0C513C0F20003984748F200031B6883F3A6
S2140003B0888848F204031C68640864002000210052
S2140003C02200230000F003F8C046FDE7FEE7E0B594
S2140003D045464E465746E0B45D4620B4254626467A
S2140003E02746A046A146A246A346A44684F3008814
S2140003F0A44720BCAB46E0BCBA46B146A846E0BD22
S21400040070B500250E4B0F4CE41AA410A54209D176
S214000410002500F01DF80C4C0C4BE41AA410A54265
S21400042007D170BD064AAB009B181B68984701357C
S214000430ECE7064AAB009B181B6898470135EEE7C9
S2140004405C0400005C040000600400005C04000023
S214000450F8B5C046F8BC08BC9E467047850100004B
S214000460F8B5C046F8BC08BC9E4670475901000067
S214007C007FE97FE9F8F776BA7FE97FE9F8F782BA85
S214007C107FE97FE9F8F78EBA000000000000000058
S2148040003F438FB0BB1800008020084001000000AE
S214804010000000000000000000000000000000001B
S804000000FB
