S0150000545A2D47657453746172742D532E7372656386
S2140000002006002049020000DF020000E502000092
S21400001000000000000000000000000000000000DB
S214000020000000000000000000000000DF020000EA
S2140000300000000000000000DF020000DF020000F9
S214000040DF020000DF020000DF020000DF02000027
S214000050DF020000DF020000DF020000DF02000017
S214000060DF020000DF020000DF020000DF02000007
S214000070DF020000DF020000DF020000DF020000F7
S214000080DF020000DF020000DF020000DF020000E7
S214000090DF020000DF020000DF020000DF020000D7
S2140000A0DF020000DF020000DF020000DF020000C7
S2140000B0DF020000DF020000DF020000DF020000B7
S2140000C0DF020000DF020000DF020000DF020000A7
S2140000D0DF020000DF020000DF020000DF02000097
S2140000E0DF020000DF020000DF020000DF02000087
S2140000F0DF02000080B582B000AF78607B68180031
S21400010040F23D73C0F20003984703001800BD4656
S21400011002B0010002000300844680BC02BC864692
S21400012081F300880C4780B582B000AF78607B68AA
S214000130180040F25173C0F20003984703001800FD
S214000140BD4602B0010002000300844680BC02BC2B
S214000150864681F300880C4780B582B000AF786091
S2140001607B68180040F2A373C0F200039847BD46B0
S21400017002B00020010002000300844680BC01BCDF
S214000180864680F30088044710B540F20004C2F2A9
S2140001900004237863B940F20003C0F200032BB1D9
S2140001A044F22000C0F2800000E000BF012323706C
S2140001B010BDC04640F20003C0F2000310B54BB1BC
S2140001C040F2040144F22000C2F20001C0F28000B6
S2140001D000E000BF44F22000C0F28000036803B9CC
S2140001E010BD40F20003C0F20003002BF8D0984781
S2140001F0F6E7C04680B500AF43F20023C4F2000322
S2140002000022DA664EF20013CEF2000340F280229D
S214000210002199504EF20013CEF2000340F28422E1
S21400022000219950C046BD4680BD80B500AF40F263
S214000230FF23C0F20003984740F2F513C0F2000314
S2140002409847C046BD4680BD80B582B000AF40F638
S2140002505003C0F200037B6040F20003C2F20003CA
S2140002603B607A683B689A420FD007E03B681A1DED
S2140002703A607A68111D796012681A603A6840F22E
S2140002800003C2F200039A42F0D340F20003C2F227
S21400029000033B6004E03B681A1D3A6000221A60C7
S2140002A03A6840F21C03C2F200039A42F3D340F2CB
S2140002B00003C0F200037B604EF60053CEF200034C
S2140002C07A687F218A439A6040F2E173C0F20003A5
S2140002D0984740F26573C0F200039847FEE780B582
S2140002E000AFFEE780B500AFFEE780B500AF40F296
S2140002F03733C0F200039847C046BD4680BD80B580
S21400030000AF40F2EB23C0F200039847C046BD465C
S21400031080BD80B582B000AF786039607B685A686F
S2140003203B685B001E210B401A437B685A60C04640
S214000330BD4602B080BD80B500AF45F20003C4F2F2
S21400034000130021180040F21333C0F20003984750
S214000350002040F2BB63C0F20003984740F2C5435A
S214000360C0F20003984740F28553C0F20003984756
S21400037040F24543C0F20003984740F2D953C0F21A
S214000380000398471F2040F2F133C0F2000398475D
S214000390C046BD4680BD80B582B000AF786039608B
S2140003A0C0467B685B683A681340002BF9D1C046AC
S2140003B0BD4602B080BD80B584B000AFF8607A60FC
S2140003C00B23FB180A1C1A700B23FB181A78FB6801
S2140003D0083292007968D150FB687D21180040F2FF
S2140003E09733C0F200039847C046BD4604B080BDB0
S2140003F080B582B000AF78607B680122134073B18D
S21400040040F20512C0F2010241F60043C4F20003B6
S2140004100021180040F2B733C0F200039847C046E8
S214000420BD4602B080BD80B582B000AF78600A00DD
S214000430FB1C1A707B68FA1C12781A71C046BD46FF
S21400044002B080BD80B582B000AF40F60003C4F2B3
S21400045000037B607B680121180040F22743C0F24E
S21400046000039847C046BD4602B080BD80B582B046
S21400047000AF78600A00FB1C1A707B68FA1C1278C2
S2140004801A74C046BD4602B080BD80B584B000AFC9
S21400049078607B68DB69FB60FB681B0A1F221340E1
S2140004A0FB60FB681800BD4604B080BD80B582B016
S2140004B000AF786039607B683A68DA61C046BD464E
S2140004C002B080BD80B582B000AF41F20043C4F2F6
S2140004D000037B60BB1C00221A807B68180040F279
S2140004E08B43C0F2000398470200BB1C1A80BB1C5B
S2140004F01B881B021A0041F600731A407B68110025
S214000500180040F2AD43C0F2000398477B68002114
S214000510180040F26D43C0F200039847C046BD463F
S21400052002B080BD80B582B000AF78607B681B6982
S2140005301B09012213405A1E9341DBB21800BD4628
S21400054002B080BD80B582B000AF78607B681B7E4D
S214000550DBB2802252421343DAB27B681A76C04678
S214000560BD4602B080BD80B582B000AF78600A009C
S214000570FB1C1A707B68FA1C12781A76C046BD46B9
S21400058002B080BD80B582B000AF41F20003C4F275
S21400059000037B607B680221180040F26753C0F2BC
S2140005A000039847C0467B68180040F22553C0F207
S2140005B00003984703001A0001235340DBB2002BC8
S2140005C0F1D17B68180040F24553C0F2000398470B
S2140005D0C046BD4602B080BD80B582B000AF41F2D5
S2140005E00003C4F200037B60BB1C00221A80C046D6
S2140005F0BD4602B080BD80B582B000AF78607B6833
S2140006009B79DBB21800BD4602B080BD80B582B0D3
S21400061000AF78600A00FB1C1A707B68FA1C127820
S2140006209A71C046BD4602B080BD80B584B000AFAA
S21400063078600A00FB1C1A700F23FB187A68927801
S2140006401A700F23FB18FA1C1B7812781340DAB2C4
S2140006500F23FB1803210A401A700F23FB181B7880
S2140006601800BD4604B080BD80B584B000AF786089
S2140006700A00FB1C1A700F23FB187A6892781A700F
S2140006800F23FB180F22BA18127803218A431A7018
S214000690FB1C1B7803221340D9B20F23FB180F2232
S2140006A0BA1812780A431A707B680F22BA181278A2
S2140006B09A70C046BD4604B080BD80B582B000AF1B
S2140006C00200FB1D1A7040F20043C4F2000303212F
S2140006D0180040F22B63C0F20003984703001A008C
S2140006E0FB1D1B78934225D040F20043C4F2000362
S2140006F0FF21180040F20D63C0F200039847FB1D6F
S2140007001A7840F20043C4F200031100180040F2C9
S2140007106963C0F200039847C04640F20043C4F243
S2140007200003180040F2F753C0F200039847030096
S214000730002BF2D0C046BD4602B080BD80B582B068
S21400074000AF78607B6803331800BD4602B080BDFA
S21400075080B582B000AF78607B68023B1800BD466B
S21400076002B080BD90B583B000AF40F22B23C0F23C
S2140007700003984748F200031B683B603B6883F31E
S214000780888848F204031B687B607B681C0064084A
S2140007906400200021002200230000F007F8C04675
S2140007A0FDE780B582B000AF7860FEE7E0B545466D
S2140007B04E465746E0B45D4620B4254626462746B4
S2140007C0A046A146A246A346A44684F30088A447B2
S2140007D020BCAB46E0BCBA46B146A846E0BD000029
S2140007E070B500250E4B0F4CE41AA410A54209D193
S2140007F0002500F01DF80C4C0C4BE41AA410A54282
S21400080007D170BD064AAB009B181B689847013598
S214000810ECE7064AAB009B181B6898470135EEE7E5
S2140008203C0800003C080000400800003C080000AF
S214000830F8B5C046F8BC08BC9E467047B501000037
S214000840F8B5C046F8BC08BC9E4670478901000053
S214007C007FE97FE9F8F776BA7FE97FE9F8F78BBA7C
S214007C107FE97FE9F8F7A0BA000000000000000046
S2148040003F438FB0BB1800008020084001000000AE
S214804010000000000000000000000000000000001B
S804000000FB
