S0160000545A2D47657453746172742D4E532E7372656337
S113800040260020758100000B8200000B820000D6
S1138010000000000000000000000000000000005C
S11380200000000000000000000000009F8200002B
S113803000000000000000000B8200000B82000022
S11380400B8200000B8200000B8200000B820000F8
S11380500B8200000B8200000B8200000B820000E8
S11380600B8200000B8200000B8200000B820000D8
S11380700B8200000B8200000B8200000B820000C8
S11380800B8200000B8200000B8200000B820000B8
S11380900B8200000B8200000B8200000B820000A8
S11380A00B8200000B8200000B8200000B82000098
S11380B00B8200000B8200000B8200000B82000088
S11380C00B8200000B8200000B8200000B82000078
S11380D00B8200000B8200000B8200000B82000068
S11380E00B8200000B8200000B8200000B82000058
S11380F00B82000010B542F21804C2F20004237887
S113810063B940F20003C0F200032BB148F27430AB
S1138110C0F2000000E000BF0123237010BDC04680
S113812040F20003C0F2000310B54BB142F21C014F
S113813048F27430C2F20001C0F2000000E000BF57
S113814048F27430C0F20000036803B910BD40F275
S11381500003C0F20003002BF8D09847F6E7C046AE
S113816080B500AF48F21123C0F200039847C0461F
S1138170BD4680BD80B582B000AF48F27433C0F212
S113818000037B6042F20003C2F200033B607A68A2
S11381903B689A420FD007E03B681A1D3A607A6840
S11381A0111D796012681A603A6842F21803C2F22B
S11381B000039A42F0D342F21803C2F200033B6078
S11381C004E03B681A1D3A6000221A603A6842F2E1
S11381D03C03C2F200039A42F3D348F20003C0F214
S11381E000037B604EF60053CEF200037A687F21D1
S11381F08A439A6048F20533C0F20003984748F274
S11382001B23C0F200039847FEE780B500AFFEE7EA
S113821080B500AFC046BD4680BD80B500AF48F212
S11382206113C0F20003984748F2E123C0F200034F
S11382309847012047F60143C0F200039847020023
S113824042F23403C2F200031A60072047F60943DE
S1138250C0F200039847020042F23403C2F2000362
S11382605A60C046FDE780B584B000AF7860012352
S1138270FB607B6818331B68023B1B78FB60FB6860
S113828003B108E07B681B68180048F2AF23C0F212
S113829000039847C046C046BD4604B080BD80B5C3
S11382A000AF70466946DEE7C046BD4680BD80B576
S11382B082B000AF78607B68180047F61143C0F2C3
S11382C000039847C046BD4602B080BD80B582B069
S11382D000AF7860009800DFC046BD4602B080BDA4
S11382E080B500AF012383F3148842F20003C2F285
S11382F00003180048F2CD23C0F200039847C0469B
S1138300BD4680BD70B500250E4B0F4CE41AA41079
S1138310A54209D1002500F01DF80C4C0C4BE41AC1
S1138320A410A54207D170BD064AAB009B181B6878
S113833098470135ECE7064AAB009B181B68984741
S11383400135EEE760830000608300006483000071
S113835060830000F8B5C046F8BC08BC9E46704770
S113836021810000F8B5C046F8BC08BC9E467047A1
S1078370F580000090
S1138374414141412048656C6C6F20576F726C64B5
S10B838420286E73290D0A0084
S90380007C
