S0160000545A2D47657453746172742D4E532E7372656337
S113800028260020758100000B8200000B820000EE
S1138010000000000000000000000000000000005C
S11380200000000000000000000000001F830000AA
S113803000000000000000000B8200000B82000022
S11380400B8200000B8200000B8200000B820000F8
S11380500B8200000B8200000B8200000B820000E8
S11380600B8200000B8200000B8200000B820000D8
S11380700B8200000B8200000B8200000B820000C8
S11380800B8200000B8200000B8200000B820000B8
S11380900B8200000B8200000B8200000B820000A8
S11380A00B8200000B8200000B8200000B82000098
S11380B00B8200000B8200000B8200000B82000088
S11380C00B8200000B8200000B8200000B82000078
S11380D00B8200000B8200000B8200000B82000068
S11380E00B8200000B8200000B8200000B82000058
S11380F00B82000010B542F20004C2F2000423789F
S113810063B940F20003C0F200032BB148F2884087
S1138110C0F2000000E000BF0123237010BDC04680
S113812040F20003C0F2000310B54BB142F2040167
S113813048F28840C2F20001C0F2000000E000BF33
S113814048F28840C0F20000036803B910BD40F251
S11381500003C0F20003002BF8D09847F6E7C046AE
S113816080B500AF48F21123C0F200039847C0461F
S1138170BD4680BD80B582B000AF48F28843C0F2EE
S113818000037B6042F20003C2F200033B607A68A2
S11381903B689A420FD007E03B681A1D3A607A6840
S11381A0111D796012681A603A6842F20003C2F243
S11381B000039A42F0D342F20003C2F200033B6090
S11381C004E03B681A1D3A6000221A603A6842F2E1
S11381D02803C2F200039A42F3D348F20003C0F228
S11381E000037B604EF60053CEF200037A687F21D1
S11381F08A439A6048F20943C0F20003984748F260
S11382001B23C0F200039847FEE780B500AFFEE7EA
S113821080B500AFC046BD4680BD80B582B000AF1A
S113822048F26113C0F20003984748F26933C0F280
S11382300003180047F61143C0F2000398470300F7
S11382407B607B680BB100BEFEE7012383F31488D7
S113825048F28133C0F200039847012047F60143F6
S1138260C0F200039847020042F22003C2F2000366
S11382701A60072047F60943C0F20003984702003A
S113828042F22003C2F200035A60C046FDE780B503
S113829088B000AF786039607B68042213402BB14A
S11382A0EFF30983FB60FB68FB6101E03B68FB6162
S11382B07B682022134013B1FB69BB6102E0FB69B8
S11382C02833BB61BB6918331B68023B1A001723B0
S11382D0FB1812781A70BB691B683B611723FB18E3
S11382E01B78012B0BD0022B11D003B113E03B6997
S11382F0180048F22733C0F2000398470BE03B69AB
S1138300180048F24B33C0F20003984703E00023FF
S113831083F31488C046C046BD4608B080BD70468D
S11383206946B4E7C04680B582B000AF78607B6828
S1138330180047F62143C0F200039847C046BD46E3
S113834002B080BD80B500AFFEE780B582B000AF5B
S113835078607B68180047F61943C0F20003984719
S1138360C046BD4602B080BD80B500AF00231800F2
S1138370BD4680BD80B500AF02DFC046BD4680BDAE
S113838080B588B000AF3B00180020231A000021FC
S113839048F25943C0F2000398473B0020221A7068
S11383A03B0020225A703B0020229A703B0020227E
S11383B0DA703B0021221A713B0021225A713B00E2
S11383C021229A713B002122DA713B0044221A7265
S11383D03B0083225A7248F27533C0F20003984777
S11383E03B00180047F61943C0F2000398470123E5
S11383F083F3148848F24533C0F200039847C0461B
S1138400BD4608B080BD000070B500250E4B0F4C72
S1138410E41AA410A54209D1002500F025F80C4C5B
S11384200C4BE41AA410A54207D170BD064AAB0058
S11384309B181B6898470135ECE7064AAB009B186C
S11384401B6898470135EEE77484000074840000CB
S1138450788400007484000003008218934200D1E1
S1138460704719700133F9E7F8B5C046F8BC08BC89
S11384709E46704721810000F8B5C046F8BC08BC90
S10B84809E467047F5800000E0
S90380007C
