S0160000545A2D47657453746172742D4E532E7372656337
S113800028260020718100006F8100006F8100002C
S1138010000000000000000000000000000000005C
S11380200000000000000000000000002B8200009F
S113803000000000000000006F8100006F8100005C
S11380406F8100006F8100006F8100006F8100006C
S11380506F8100006F8100006F8100006F8100005C
S11380606F8100006F8100006F8100006F8100004C
S11380706F8100006F8100006F8100006F8100003C
S11380806F8100006F8100006F8100006F8100002C
S11380906F8100006F8100006F8100006F8100001C
S11380A06F8100006F8100006F8100006F8100000C
S11380B06F8100006F8100006F8100006F810000FC
S11380C06F8100006F8100006F8100006F810000EC
S11380D06F8100006F8100006F8100006F810000DC
S11380E06F8100006F8100006F8100006F810000CC
S11380F06F81000010B542F20004C2F2000423783C
S113810063B940F20003C0F200032BB148F2CC2063
S1138110C0F2000000E000BF0123237010BDC04680
S113812040F20003C0F2000310B54BB142F2040167
S113813048F2CC20C2F20001C0F2000000E000BF0F
S113814048F2CC20C0F20000036803B910BD40F22D
S11381500003C0F20003002BF8D09847F6E7C046AE
S113816010B548F2F513C0F20003984710BDFEE7BE
S113817010B548F2CC22C0F2000242F20003C2F26F
S113818000039A4212D042F20003C2F2000348F202
S1138190CC22C0F2000203E01168196004330432F7
S11381A042F20001C2F200018B42F5D342F2000315
S11381B0C2F2000302E000221A60043342F22402F5
S11381C0C2F200029342F6D348F20003C0F2000365
S11381D07F2293434EF60052CEF20002936048F29F
S11381E05D23C0F20003984748F2F713C0F200037E
S11381F09847FEE7704710B548F26113C0F20003D8
S11382009847012047F60143C0F20003984742F221
S11382101C04C2F200042060072047F60943C0F2A0
S1138220000398476060C046FDE77046694607E072
S1138230704710B547F61143C0F20003984710BDCC
S113824010B58369023B1B7803B110BD006848F286
S11382503323C0F200039847F7E7000070B5002508
S11382600E4B0F4CE41AA410A54209D1002500F0CE
S11382701DF80C4C0C4BE41AA410A54207D170BD98
S1138280064AAB009B181B6898470135ECE7064A81
S1138290AB009B181B6898470135EEE7B8820000D5
S11382A0B8820000BC820000B8820000F8B5C04665
S11382B0F8BC08BC9E46704721810000F8B5C04652
S10F82C0F8BC08BC9E467047F580000026
S90380007C
