S0160000545A2D47657453746172742D4E532E7372656337
S113800028260020758100000B8200000B820000EE
S1138010000000000000000000000000000000005C
S11380200000000000000000000000000D830000BC
S113803000000000000000000B8200000B82000022
S11380400B8200000B8200000B8200000B820000F8
S11380500B8200000B8200000B8200000B820000E8
S11380600B8200000B8200000B8200000B820000D8
S11380700B8200000B8200000B8200000B820000C8
S11380800B8200000B8200000B8200000B820000B8
S11380900B8200000B8200000B8200000B820000A8
S11380A00B8200000B8200000B8200000B82000098
S11380B00B8200000B8200000B8200000B82000088
S11380C00B8200000B8200000B8200000B82000078
S11380D00B8200000B8200000B8200000B82000068
S11380E00B8200000B8200000B8200000B82000058
S11380F00B82000010B542F20004C2F2000423789F
S113810063B940F20003C0F200032BB148F26C40A3
S1138110C0F2000000E000BF0123237010BDC04680
S113812040F20003C0F2000310B54BB142F2040167
S113813048F26C40C2F20001C0F2000000E000BF4F
S113814048F26C40C0F20000036803B910BD40F26D
S11381500003C0F20003002BF8D09847F6E7C046AE
S113816080B500AF48F21123C0F200039847C0461F
S1138170BD4680BD80B582B000AF48F26C43C0F20A
S113818000037B6042F20003C2F200033B607A68A2
S11381903B689A420FD007E03B681A1D3A607A6840
S11381A0111D796012681A603A6842F20003C2F243
S11381B000039A42F0D342F20003C2F200033B6090
S11381C004E03B681A1D3A6000221A603A6842F2E1
S11381D02803C2F200039A42F3D348F20003C0F228
S11381E000037B604EF60053CEF200037A687F21D1
S11381F08A439A6048F2ED33C0F20003984748F28C
S11382001B23C0F200039847FEE780B500AFFEE7EA
S113821080B500AFC046BD4680BD80B582B000AF1A
S113822048F26113C0F20003984748F2E133C0F208
S11382300003180047F61143C0F2000398470300F7
S11382407B607B680BB100BEFEE748F26B33C0F283
S113825000039847012047F60143C0F20003984702
S1138260020042F22003C2F200031A60072047F61C
S11382700943C0F200039847020042F22003C2F20D
S113828000035A60C046FDE780B588B000AF78604F
S113829039607B68042213402BB1EFF30983FB6040
S11382A0FB68FB6101E03B68FB617B6820221340B3
S11382B013B1FB69BB6102E0FB692833BB61BB6995
S11382C018331B68023B1A001723FB1812781A7024
S11382D0BB691B683B611723FB181B7813B1012B87
S11382E008D00FE03B69180048F21533C0F20003D0
S11382F0984707E03B69180048F23933C0F200039D
S11383009847C046C046BD4608B080BD7046694621
S1138310BAE7C04680B582B000AF78607B681800C9
S113832047F62143C0F200039847C046BD4602B059
S113833080BD80B500AFFEE780B582B000AF786045
S11383407B68180047F61943C0F200039847C046FB
S1138350BD4602B080BD80B582B000AF7860786859
S113836001DFC046BD4602B080BD80B588B000AF15
S11383703B00180020231A00002148F23D43C0F2BC
S1138380000398473B0020221A703B0020225A70B9
S11383903B0020229A703B002022DA703B00C0226E
S11383A01A713B0005225A713B002022DA713B000E
S11383B032221A723B0083225A72012383F31488F7
S11383C03B00180048F25733C0F20003984748F2C4
S11383D03333C0F200039847C046BD4608B080BDA1
S11383E080B500AF00231800BD4680BD70B50025E0
S11383F00E4B0F4CE41AA410A54209D1002500F03D
S113840025F80C4C0C4BE41AA410A54207D170BDFE
S1138410064AAB009B181B6898470135ECE7064AEF
S1138420AB009B181B6898470135EEE758840000A1
S1138430588400005C840000588400000300821803
S1138440934200D1704719700133F9E7F8B5C0467B
S1138450F8BC08BC9E46704721810000F8B5C046B0
S10F8460F8BC08BC9E467047F580000084
S90380007C
