S0160000545A2D47657453746172742D4E532E7372656337
S113800028260020758100000B8200000B820000EE
S1138010000000000000000000000000000000005C
S1138020000000000000000000000000D7820000F3
S113803000000000000000000B8200000B82000022
S11380400B8200000B8200000B8200000B820000F8
S11380500B8200000B8200000B8200000B820000E8
S11380600B8200000B8200000B8200000B820000D8
S11380700B8200000B8200000B8200000B820000C8
S11380800B8200000B8200000B8200000B820000B8
S11380900B8200000B8200000B8200000B820000A8
S11380A00B8200000B8200000B8200000B82000098
S11380B00B8200000B8200000B8200000B82000088
S11380C00B8200000B8200000B8200000B82000078
S11380D00B8200000B8200000B8200000B82000068
S11380E00B8200000B8200000B8200000B82000058
S11380F00B82000010B542F20004C2F2000423789F
S113810063B940F20003C0F200032BB148F2E83037
S1138110C0F2000000E000BF0123237010BDC04680
S113812040F20003C0F2000310B54BB142F2040167
S113813048F2E830C2F20001C0F2000000E000BFE3
S113814048F2E830C0F20000036803B910BD40F201
S11381500003C0F20003002BF8D09847F6E7C046AE
S113816080B500AF48F21123C0F200039847C0461F
S1138170BD4680BD80B582B000AF48F2E833C0F29E
S113818000037B6042F20003C2F200033B607A68A2
S11381903B689A420FD007E03B681A1D3A607A6840
S11381A0111D796012681A603A6842F20003C2F243
S11381B000039A42F0D342F20003C2F200033B6090
S11381C004E03B681A1D3A6000221A603A6842F2E1
S11381D02403C2F200039A42F3D348F20003C0F22C
S11381E000037B604EF60053CEF200037A687F21D1
S11381F08A439A6048F25933C0F20003984748F220
S11382001B23C0F200039847FEE780B500AFFEE7EA
S113821080B500AFC046BD4680BD80B500AF48F212
S11382206113C0F20003984748F21133C0F200030F
S11382309847012047F60143C0F200039847020023
S113824042F21C03C2F200031A60072047F60943F6
S1138250C0F200039847020042F21C03C2F200037A
S11382605A60C046FDE780B588B000AF78603960D9
S11382707B68042213402BB1EFF30983FB60FB6896
S1138280FB6101E03B68FB617B682022134013B172
S1138290FB69BB6102E0FB692833BB61BB6918332E
S11382A01B68023B1A001723FB1812781A70BB696B
S11382B01B683B611723FB181B7803B107E03B697C
S11382C0180048F2DF23C0F200039847C046C046B6
S11382D0BD4608B080BD70466946C4E7C04680B557
S11382E082B000AF78607B68180047F61143C0F293
S11382F000039847C046BD4602B080BD80B582B039
S113830000AF7860786800DFC046BD4602B080BD2B
S113831090B589B000AF3B0048F2A832C0F2000229
S113832013CA13C313CA13C303CA03C3012383F3B6
S113833014883B00180048F2FD23C0F2000398475C
S113834048F25333C0F200039847C046BD4609B013
S113835090BD80B500AFFEE770B500250E4B0F4C05
S1138360E41AA410A54209D1002500F02DF80C4C04
S11383700C4BE41AA410A54207D170BD064AAB0009
S11383809B181B6898470135ECE7064AAB009B181D
S11383901B6898470135EEE7D4830000D4830000BE
S11383A0D8830000D483000020202020C0050020B2
S11383B06F010000222222222323232324242424A5
S11383C05283000025252525F8B5C046F8BC08BC15
S11383D09E46704721810000F8B5C046F8BC08BC31
S10B83E09E467047F580000081
S90380007C
